:020000040000FA
:10200000FBEF3DF0002020204249454E56454E4909
:10201000444F5300202020544543484E4F4C4F47D7
:1020200059002020204D4943524F53494445000058
:10203000FFFFFFFFFFFFFFFFFFFFFFFFFFFFFFFFB0
:107BC000FFFFFFFFFFFFFFFFFFFFFFFFFFFFFFFFC5
:107BD000FFFFFFFFFFFFFFFFFFFFFFFFFFFF3CEC8B
:107BE0003EF012EC3EF01200000E02EC3EF0010EF0
:107BF00002EC3EF01200000EF86E200EF76E00014F
:107C000032EF3FF0036E8A90035087EC3EF08A8497
:107C10003F0E026E550EE82EFED7022EFCD700F066
:107C20008A941200700ED36E000ED26E800E9B6E80
:107C3000000EB56ED2AE1FEF3EF021EF3EF01AEF10
:107C40003EF01200046E04500F0B026E0450F00B55
:107C5000036E8A8003380F0B87EC3EF08A84A00EF7
:107C6000E82EFED78A94025087EC3EF08A84A00E5C
:107C7000E82EFED78A941200000E8D6E000E8C6ED8
:107C8000000E896E000E8A6E000E8B6E070E966EC9
:107C90009268800E936EC70E946E95680F015E69B0
:107CA000C40E5D6F3F0E5C6F070E5F6F2F0E5B6F34
:107CB000000E856EF18E1200000E0A6E000E096E27
:107CC00072EF3EF009500524076E0A500620086E38
:107CD00007C0F6FF08C0F7FF0800F55022EC3EF0A1
:107CE000094A0A2A09500524076E0A500620086E20
:107CF00007C0F6FF08C0F7FF0800F5500009D8A438
:107D000084EF3EF086EF3EF062EF3EF01200016E2F
:107D100001A08DEF3EF08FEF3EF092EF3EF08A86AD
:107D200093EF3EF08A9601A298EF3EF09AEF3EF074
:107D30009DEF3EF08A889EEF3EF08A9801A4A3EF63
:107D40003EF0A5EF3EF0A8EF3EF08A8AA9EF3EF0A4
:107D50008A9A01A6AEEF3EF0B0EF3EF0B3EF3EF0F0
:107D60008A8CB4EF3EF08A9C1200056E0504D8A4FC
:107D7000BCEF3EF0BEEF3EF0CFEF3EF004507F0F81
:107D8000086E08380F0B066E08500F0B076E065072
:107D900002EC3EF0075002EC3EF0E7EF3EF0020E40
:107DA0000518D8A4D6EF3EF0D8EF3EF0E7EF3EF04E
:107DB0000450BF0F086E08380F0B066E08500F0BEB
:107DC000076E065002EC3EF0075002EC3EF0120047
:107DD000020E056E380E046EAD0EE82EFED7042E90
:107DE000FCD7052EFAD700F0000E87EC3EF0020E0D
:107DF000056E380E046EAD0EE82EFED7042EFCD7AD
:107E0000052EFAD700F0030E02EC3EF04E0E046E83
:107E1000EB0EE82EFED7042EFCD700F0030E02EC8A
:107E20003EF0AC0E046E6C0EE82EFED7042EFCD78E
:107E300000D0030E02EC3EF0020E02EC3EF0020E09
:107E400002EC3EF0080E02EC3EF0000E02EC3EF0BA
:107E50000C0E02EC3EF0000E02EC3EF0060E02ECC0
:107E60003EF01200EFEC3DF03D0E0C6EE10E0B6E9D
:107E7000400EE82EFED70B2EFCD70C2EFAD7E8ECDE
:107E80003EF0F4EC3DF0010E046E010EB5EC3EF058
:107E9000220E056E200E066E5CEC3EF0010E046EA6
:107EA000020EB5EC3EF0140E056E200E066E5CEC74
:107EB0003EF07A0E0C6EC10E0B6E820EE82EFED7CF
:107EC0000B2EFCD70C2EFAD7F4EC3DF0010E046E0D
:107ED000010EB5EC3EF0050E056E200E066E5CEC54
:107EE0003EF07A0E0C6EC10E0B6E820EE82EFED79F
:107EF0000B2EFCD70C2EFAD741EF3FF000EF10F01D
:020000040030CA
:0400000003285F3C36
:0200060081FF78
:020000040020DA
:080000000905040B00000000DB
:00000001FF
