:020000040000FA
:1020000097EF3EF0004249454E56454E49444F53E6
:1020100000544543484E4F4C4F4759004D49435299
:102020004F534944450000FFFFFFFFFFFFFFFFFF45
:10203000FFFFFFFFFFFFFFFFFFFFFFFFFFFFFFFFB0
:107D2000FFFFFFFFFFFF010EF3EC3EF01200000E1D
:107D3000F86E200EF76E000145EF3FF0000E936ED7
:107D4000EA0E036EC30EE82EFED7032EFCD700F01A
:107D5000020EF3EC3EF0280EF3EC3EF0010EF3ECD5
:107D60003EF00C0EF3EC3EF0060EF3EC3EF012008B
:107D7000C4EF3EF003C0F6FF04C0F7FF0800F55063
:107D80001CEC3FF0034A042A03C0F6FF04C0F7FFCF
:107D90000800F5500009D8A4D0EF3EF0D2EF3EF035
:107DA000BAEF3EF01200086E020E0860DAEF3EF005
:107DB000DCEF3EF0E5EF3EF005500F0B8009096E59
:107DC0000950F3EC3EF0ECEF3EF005500F0BC0090C
:107DD000096E0950F3EC3EF006C003F007C004F052
:107DE000B8EC3EF01200026E02C001F0F00E011677
:107DF0008A500F0B01108A6E8A908A8200F08A9254
:107E0000100E016E940EE82EFED7012EFCD700D086
:107E100002C001F0013AF00E01168A500F0B01105A
:107E20008A6E8A8200F08A922F0E016EC00EE82EB2
:107E3000FED7012EFCD71200026E02C001F0F00E38
:107E400001168A500F0B01108A6E8A808A8200F018
:107E50008A92100E016E940EE82EFED7012EFCD7EA
:107E600000D002C001F0013AF00E01168A500F0B4B
:107E700001108A6E8A8200F08A922F0E016EC00E67
:107E8000E82EFED7012EFCD712009EEC3EF0040E29
:107E9000056E1C0E066E200E076E010ED3EC3EF032
:107EA000030E056E110E066E200E076E020ED3EC49
:107EB0003EF07A0E0B6EC10E0A6E820EE82EFED7D1
:107EC0000A2EFCD70B2EFAD793EC3EF0030E056E6C
:107ED000050E066E200E076E010ED3EC3EF07A0EF4
:107EE0000B6EC10E0A6E820EE82EFED70A2EFCD74C
:107EF0000B2EFAD793EC3EF047EF3FF000EF10F077
:020000040030CA
:08000000000E181EFF8181FFB4
:020000040020DA
:0800000005070E0700000000D7
:00000001FF
